S01000005573696E674C43442E737265633B
S11300000C9434000C9449000C9449000C9449005D
S11300100C9449000C9449000C9449000C94490038
S11300200C9449000C9449000C9449000C94490028
S11300300C9449000C9449000C9449000C94490018
S11300400C9449000C9449000C9449000C94490008
S11300500C9449000C9449000C9449000C944900F8
S11300600C9449000C94490011241FBECFEFD8E032
S1130070DEBFCDBF11E0A0E0B1E0E4EAF2E002C0EF
S113008005900D92AE31B107D9F70E94E3000C94AC
S113009050010C9400005A989BB19F709BB99BB17E
S11300A0282F207F922B9BB95B9AE7E5F2E03197EA
S11300B0F1F700C000005B98E7E5F2E03197F1F753
S11300C000C000009BB19F709BB99BB18295807F5B
S11300D0892B8BB95B9A87E592E00197F1F700C011
S11300E000005B98E7E5F2E03197F1F700C000000B
S11300F008958CEF8AB98FE59AEE0197F1F700C065
S1130100000083E30E944B0082E30E944B0088E2DC
S11301100E944B0095ED9A95F1F700008CE00E9447
S11301204B0085ED8A95F1F7000086E00E944B00B4
S113013095ED9A95F1F7000081E00E944B008FE362
S11301409FE10197F1F700C0000008955A9A9BB10E
S11301509F709BB99BB1282F207F922B9BB95B9AF0
S1130160E7E5F2E03197F1F700C000005B98E7E5BE
S1130170F2E03197F1F700C000009BB19F709BB98A
S11301809BB18295807F892B8BB95B9A87E592E03E
S11301900197F1F700C000005B98E7E5F2E03197C2
S11301A0F1F700C000000895CF93DF93EC0188813C
S11301B0882331F021960E94A60089918111FBCFFA
S11301C0DF91CF910895CF93DF93CDB7DEB76097DA
S11301D00FB6F894DEBF0FBECDBF0E94790080E059
S11301E091E00E94D40000E010E04AE0BE016F5F9D
S11301F07F4FC8010E941B0180EC0E944B0025ED3B
S11302002A95F1F700008EE091E00E94D400CE011F
S113021001960E94D40086E191E00E94D4008FEF01
S113022093ED20E3815090402040E1F700C00000AE
S11302300F5F1F4FDACFBB274A3031F4992322F4E2
S1130240BDE2909581959F4F0C942701BB27FB013C
S11302505527AA27880F991FAA1FA41710F0A41BBB
S113026083955051B9F7A05DAA3308F0A95DA19315
S1130270009779F7B111B1931192CB010C9440011D
S1130280DC01FC01672F71917723E1F7329704C0F9
S11302907C916D9370836291AE17BF07C8F3089584
S10702A0F894FFCFFC
S11302A4416C6C20776F726B2077656C6C005375AE
S11102B47265202020002074696D65730000BF
S9030000FC
